{
  "contractName": "PassportAuth",
  "abi": [
    {
      "anonymous": false,
      "inputs": [
        {
          "indexed": false,
          "internalType": "uint256",
          "name": "passportNumber",
          "type": "uint256"
        },
        {
          "indexed": false,
          "internalType": "address",
          "name": "owner",
          "type": "address"
        }
      ],
      "name": "PassportCreated",
      "type": "event"
    },
    {
      "inputs": [
        {
          "internalType": "address",
          "name": "",
          "type": "address"
        },
        {
          "internalType": "uint256",
          "name": "",
          "type": "uint256"
        }
      ],
      "name": "ownerPassports",
      "outputs": [
        {
          "internalType": "uint256",
          "name": "",
          "type": "uint256"
        }
      ],
      "stateMutability": "view",
      "type": "function"
    },
    {
      "inputs": [
        {
          "internalType": "uint256",
          "name": "",
          "type": "uint256"
        }
      ],
      "name": "passports",
      "outputs": [
        {
          "internalType": "string",
          "name": "name",
          "type": "string"
        },
        {
          "internalType": "uint256",
          "name": "passportNumber",
          "type": "uint256"
        },
        {
          "internalType": "string",
          "name": "country",
          "type": "string"
        },
        {
          "internalType": "uint256",
          "name": "issueDate",
          "type": "uint256"
        },
        {
          "internalType": "uint256",
          "name": "expiryDate",
          "type": "uint256"
        },
        {
          "internalType": "address",
          "name": "owner",
          "type": "address"
        }
      ],
      "stateMutability": "view",
      "type": "function"
    },
    {
      "inputs": [
        {
          "internalType": "uint256",
          "name": "_passportNumber",
          "type": "uint256"
        },
        {
          "internalType": "string",
          "name": "_name",
          "type": "string"
        },
        {
          "internalType": "string",
          "name": "_country",
          "type": "string"
        },
        {
          "internalType": "uint256",
          "name": "_issueDate",
          "type": "uint256"
        },
        {
          "internalType": "uint256",
          "name": "_expiryDate",
          "type": "uint256"
        }
      ],
      "name": "createPassport",
      "outputs": [],
      "stateMutability": "nonpayable",
      "type": "function"
    },
    {
      "inputs": [
        {
          "internalType": "address",
          "name": "_owner",
          "type": "address"
        }
      ],
      "name": "verifyPassportByAddress",
      "outputs": [
        {
          "internalType": "bool",
          "name": "",
          "type": "bool"
        }
      ],
      "stateMutability": "view",
      "type": "function"
    },
    {
      "inputs": [
        {
          "internalType": "address",
          "name": "_owner",
          "type": "address"
        }
      ],
      "name": "getOwnerPassports",
      "outputs": [
        {
          "internalType": "uint256[]",
          "name": "",
          "type": "uint256[]"
        }
      ],
      "stateMutability": "view",
      "type": "function"
    }
  ],
  "bytecode": "0x608060405234801561001057600080fd5b50610cf6806100206000396000f3fe608060405234801561001057600080fd5b50600436106100575760003560e01c806322ba286f1461005c5780632e1eaed01461008c57806373269c95146100bc578063cb22f5fd146100d8578063d9643ce21461010d575b600080fd5b61007660048036038101906100719190610741565b61013d565b60405161008391906109a1565b60405180910390f35b6100a660048036038101906100a1919061076a565b6101d4565b6040516100b39190610a6d565b60405180910390f35b6100d660048036038101906100d191906107cf565b610205565b005b6100f260048036038101906100ed91906107a6565b610400565b604051610104969594939291906109de565b60405180910390f35b61012760048036038101906101229190610741565b61056c565b60405161013491906109c3565b60405180910390f35b6060600160008373ffffffffffffffffffffffffffffffffffffffff1673ffffffffffffffffffffffffffffffffffffffff1681526020019081526020016000208054806020026020016040519081016040528092919081815260200182805480156101c857602002820191906000526020600020905b8154815260200190600101908083116101b4575b50505050509050919050565b600160205281600052604060002081815481106101f057600080fd5b90600052602060002001600091509150505481565b6000806000878152602001908152602001600020600101541461025d576040517f08c379a000000000000000000000000000000000000000000000000000000000815260040161025490610a4d565b60405180910390fd5b60006040518060c001604052808681526020018781526020018581526020018481526020018381526020013373ffffffffffffffffffffffffffffffffffffffff1681525090508060008088815260200190815260200160002060008201518160000190805190602001906102d392919061060c565b506020820151816001015560408201518160020190805190602001906102fa92919061060c565b50606082015181600301556080820151816004015560a08201518160050160006101000a81548173ffffffffffffffffffffffffffffffffffffffff021916908373ffffffffffffffffffffffffffffffffffffffff160217905550905050600160003373ffffffffffffffffffffffffffffffffffffffff1673ffffffffffffffffffffffffffffffffffffffff1681526020019081526020016000208690806001815401808255809150506001900390600052602060002001600090919091909150557f41927cfe3b9a81e52bd8f8563cc9a4c73e83908941887590d79191e7e482a1bb86336040516103f0929190610a88565b60405180910390a1505050505050565b600060205280600052604060002060009150905080600001805461042390610bf1565b80601f016020809104026020016040519081016040528092919081815260200182805461044f90610bf1565b801561049c5780601f106104715761010080835404028352916020019161049c565b820191906000526020600020905b81548152906001019060200180831161047f57829003601f168201915b5050505050908060010154908060020180546104b790610bf1565b80601f01602080910402602001604051908101604052809291908181526020018280546104e390610bf1565b80156105305780601f1061050557610100808354040283529160200191610530565b820191906000526020600020905b81548152906001019060200180831161051357829003601f168201915b5050505050908060030154908060040154908060050160009054906101000a900473ffffffffffffffffffffffffffffffffffffffff16905086565b600080600160008473ffffffffffffffffffffffffffffffffffffffff1673ffffffffffffffffffffffffffffffffffffffff1681526020019081526020016000208054806020026020016040519081016040528092919081815260200182805480156105f857602002820191906000526020600020905b8154815260200190600101908083116105e4575b505050505090506000815111915050919050565b82805461061890610bf1565b90600052602060002090601f01602090048101928261063a5760008555610681565b82601f1061065357805160ff1916838001178555610681565b82800160010185558215610681579182015b82811115610680578251825591602001919060010190610665565b5b50905061068e9190610692565b5090565b5b808211156106ab576000816000905550600101610693565b5090565b60006106c26106bd84610ae2565b610ab1565b9050828152602081018484840111156106da57600080fd5b6106e5848285610baf565b509392505050565b6000813590506106fc81610c92565b92915050565b600082601f83011261071357600080fd5b81356107238482602086016106af565b91505092915050565b60008135905061073b81610ca9565b92915050565b60006020828403121561075357600080fd5b6000610761848285016106ed565b91505092915050565b6000806040838503121561077d57600080fd5b600061078b858286016106ed565b925050602061079c8582860161072c565b9150509250929050565b6000602082840312156107b857600080fd5b60006107c68482850161072c565b91505092915050565b600080600080600060a086880312156107e757600080fd5b60006107f58882890161072c565b955050602086013567ffffffffffffffff81111561081257600080fd5b61081e88828901610702565b945050604086013567ffffffffffffffff81111561083b57600080fd5b61084788828901610702565b93505060606108588882890161072c565b92505060806108698882890161072c565b9150509295509295909350565b60006108828383610983565b60208301905092915050565b61089781610b67565b82525050565b60006108a882610b22565b6108b28185610b45565b93506108bd83610b12565b8060005b838110156108ee5781516108d58882610876565b97506108e083610b38565b9250506001810190506108c1565b5085935050505092915050565b61090481610b79565b82525050565b600061091582610b2d565b61091f8185610b56565b935061092f818560208601610bbe565b61093881610c81565b840191505092915050565b6000610950601783610b56565b91507f50617373706f727420616c7265616479206578697374730000000000000000006000830152602082019050919050565b61098c81610ba5565b82525050565b61099b81610ba5565b82525050565b600060208201905081810360008301526109bb818461089d565b905092915050565b60006020820190506109d860008301846108fb565b92915050565b600060c08201905081810360008301526109f8818961090a565b9050610a076020830188610992565b8181036040830152610a19818761090a565b9050610a286060830186610992565b610a356080830185610992565b610a4260a083018461088e565b979650505050505050565b60006020820190508181036000830152610a6681610943565b9050919050565b6000602082019050610a826000830184610992565b92915050565b6000604082019050610a9d6000830185610992565b610aaa602083018461088e565b9392505050565b6000604051905081810181811067ffffffffffffffff82111715610ad857610ad7610c52565b5b8060405250919050565b600067ffffffffffffffff821115610afd57610afc610c52565b5b601f19601f8301169050602081019050919050565b6000819050602082019050919050565b600081519050919050565b600081519050919050565b6000602082019050919050565b600082825260208201905092915050565b600082825260208201905092915050565b6000610b7282610b85565b9050919050565b60008115159050919050565b600073ffffffffffffffffffffffffffffffffffffffff82169050919050565b6000819050919050565b82818337600083830152505050565b60005b83811015610bdc578082015181840152602081019050610bc1565b83811115610beb576000848401525b50505050565b60006002820490506001821680610c0957607f821691505b60208210811415610c1d57610c1c610c23565b5b50919050565b7f4e487b7100000000000000000000000000000000000000000000000000000000600052602260045260246000fd5b7f4e487b7100000000000000000000000000000000000000000000000000000000600052604160045260246000fd5b6000601f19601f8301169050919050565b610c9b81610b67565b8114610ca657600080fd5b50565b610cb281610ba5565b8114610cbd57600080fd5b5056fea2646970667358221220c901ef50adb3153f887af5437edd31b0549d25127701b4dd0399f089ef855b8264736f6c63430008000033",
  "immutableReferences": {},
  "source": "// SPDX-License-Identifier: MIT\r\npragma solidity ^0.8.0;\r\n\r\ncontract PassportAuth {\r\n    struct Passport {\r\n        string name;\r\n        uint256 passportNumber;\r\n        string country;\r\n        uint256 issueDate;\r\n        uint256 expiryDate;\r\n        address owner;\r\n    }\r\n\r\n    mapping(uint256 => Passport) public passports; // Maps passportNumber to Passport\r\n    mapping(address => uint256[]) public ownerPassports; // Maps owner's address to their passport numbers\r\n\r\n    event PassportCreated(uint256 passportNumber, address owner);\r\n\r\n    // Create a new passport\r\n    function createPassport(\r\n        uint256 _passportNumber,\r\n        string memory _name,\r\n        string memory _country,\r\n        uint256 _issueDate,\r\n        uint256 _expiryDate\r\n    ) public {\r\n        // Ensure the passport does not already exist\r\n        require(passports[_passportNumber].passportNumber == 0, \"Passport already exists\");\r\n\r\n        // Create the passport\r\n        Passport memory newPassport = Passport({\r\n            name: _name,\r\n            passportNumber: _passportNumber,\r\n            country: _country,\r\n            issueDate: _issueDate,\r\n            expiryDate: _expiryDate,\r\n            owner: msg.sender\r\n        });\r\n\r\n        passports[_passportNumber] = newPassport; // Save passport\r\n        ownerPassports[msg.sender].push(_passportNumber); // Track owner's passports\r\n\r\n        emit PassportCreated(_passportNumber, msg.sender);\r\n    }\r\n\r\n    // Verify passport by public key (owner address)\r\n    function verifyPassportByAddress(address _owner) public view returns (bool) {\r\n        uint256[] memory ownerPassportList = ownerPassports[_owner];\r\n        return ownerPassportList.length > 0; // Returns true if the owner has at least one passport\r\n    }\r\n\r\n    // Retrieve passports associated with a specific public key (owner address)\r\n    function getOwnerPassports(address _owner) public view returns (uint256[] memory) {\r\n        return ownerPassports[_owner];\r\n    }\r\n}\r\n",
  "sourcePath": "C:\\passport\\summa\\contracts\\Passport.sol",
  "compiler": {
    "name": "solc",
    "version": "0.8.0+commit.c7dfd78e.Emscripten.clang"
  },
  "schemaVersion": "3.4.16",
  "updatedAt": "2024-12-18T07:30:31.456Z",
  "devdoc": {
    "kind": "dev",
    "methods": {},
    "version": 1
  },
  "userdoc": {
    "kind": "user",
    "methods": {},
    "version": 1
  }
}